{
  "contractName": "Chain",
  "abi": [
    {
      "anonymous": false,
      "inputs": [
        {
          "indexed": false,
          "internalType": "address",
          "name": "entityId",
          "type": "address"
        },
        {
          "indexed": false,
          "internalType": "string",
          "name": "entityMode",
          "type": "string"
        }
      ],
      "name": "AddEntity",
      "type": "event"
    },
    {
      "anonymous": false,
      "inputs": [
        {
          "indexed": false,
          "internalType": "uint256",
          "name": "vaccineBatchId",
          "type": "uint256"
        },
        {
          "indexed": true,
          "internalType": "address",
          "name": "manufacturer",
          "type": "address"
        }
      ],
      "name": "AddVaccineBatch",
      "type": "event"
    },
    {
      "anonymous": false,
      "inputs": [
        {
          "indexed": true,
          "internalType": "address",
          "name": "issuer",
          "type": "address"
        },
        {
          "indexed": true,
          "internalType": "address",
          "name": "prover",
          "type": "address"
        },
        {
          "indexed": false,
          "internalType": "uint256",
          "name": "certificateId",
          "type": "uint256"
        }
      ],
      "name": "IssueCertificate",
      "type": "event"
    },
    {
      "inputs": [],
      "name": "MAX_CERTIFICATIONS",
      "outputs": [
        {
          "internalType": "uint256",
          "name": "",
          "type": "uint256"
        }
      ],
      "stateMutability": "view",
      "type": "function",
      "constant": true
    },
    {
      "inputs": [
        {
          "internalType": "uint256",
          "name": "",
          "type": "uint256"
        }
      ],
      "name": "certificateIds",
      "outputs": [
        {
          "internalType": "uint256",
          "name": "",
          "type": "uint256"
        }
      ],
      "stateMutability": "view",
      "type": "function",
      "constant": true
    },
    {
      "inputs": [
        {
          "internalType": "uint256",
          "name": "",
          "type": "uint256"
        }
      ],
      "name": "certificates",
      "outputs": [
        {
          "internalType": "uint256",
          "name": "id",
          "type": "uint256"
        },
        {
          "components": [
            {
              "internalType": "address",
              "name": "id",
              "type": "address"
            },
            {
              "internalType": "enum Chain.Mode",
              "name": "mode",
              "type": "uint8"
            },
            {
              "internalType": "uint256[]",
              "name": "certificateIds",
              "type": "uint256[]"
            }
          ],
          "internalType": "struct Chain.Entity",
          "name": "issuer",
          "type": "tuple"
        },
        {
          "components": [
            {
              "internalType": "address",
              "name": "id",
              "type": "address"
            },
            {
              "internalType": "enum Chain.Mode",
              "name": "mode",
              "type": "uint8"
            },
            {
              "internalType": "uint256[]",
              "name": "certificateIds",
              "type": "uint256[]"
            }
          ],
          "internalType": "struct Chain.Entity",
          "name": "prover",
          "type": "tuple"
        },
        {
          "internalType": "bytes",
          "name": "signature",
          "type": "bytes"
        },
        {
          "internalType": "enum Chain.CertificateStatus",
          "name": "status",
          "type": "uint8"
        }
      ],
      "stateMutability": "view",
      "type": "function",
      "constant": true
    },
    {
      "inputs": [
        {
          "internalType": "address",
          "name": "",
          "type": "address"
        }
      ],
      "name": "entities",
      "outputs": [
        {
          "internalType": "address",
          "name": "id",
          "type": "address"
        },
        {
          "internalType": "enum Chain.Mode",
          "name": "mode",
          "type": "uint8"
        }
      ],
      "stateMutability": "view",
      "type": "function",
      "constant": true
    },
    {
      "inputs": [
        {
          "internalType": "uint256",
          "name": "",
          "type": "uint256"
        }
      ],
      "name": "vaccineBatchIds",
      "outputs": [
        {
          "internalType": "uint256",
          "name": "",
          "type": "uint256"
        }
      ],
      "stateMutability": "view",
      "type": "function",
      "constant": true
    },
    {
      "inputs": [
        {
          "internalType": "uint256",
          "name": "",
          "type": "uint256"
        }
      ],
      "name": "vaccineBatches",
      "outputs": [
        {
          "internalType": "uint256",
          "name": "id",
          "type": "uint256"
        },
        {
          "internalType": "string",
          "name": "brand",
          "type": "string"
        },
        {
          "internalType": "address",
          "name": "manufacturer",
          "type": "address"
        }
      ],
      "stateMutability": "view",
      "type": "function",
      "constant": true
    },
    {
      "inputs": [
        {
          "internalType": "address",
          "name": "_id",
          "type": "address"
        },
        {
          "internalType": "string",
          "name": "_mode",
          "type": "string"
        }
      ],
      "name": "addEntity",
      "outputs": [],
      "stateMutability": "nonpayable",
      "type": "function"
    },
    {
      "inputs": [
        {
          "internalType": "string",
          "name": "brand",
          "type": "string"
        },
        {
          "internalType": "address",
          "name": "manufacturer",
          "type": "address"
        }
      ],
      "name": "addVaccineBatch",
      "outputs": [
        {
          "internalType": "uint256",
          "name": "",
          "type": "uint256"
        }
      ],
      "stateMutability": "nonpayable",
      "type": "function"
    },
    {
      "inputs": [
        {
          "internalType": "address",
          "name": "_issuer",
          "type": "address"
        },
        {
          "internalType": "address",
          "name": "_prover",
          "type": "address"
        },
        {
          "internalType": "string",
          "name": "_status",
          "type": "string"
        },
        {
          "internalType": "uint256",
          "name": "vaccineBatchId",
          "type": "uint256"
        },
        {
          "internalType": "bytes",
          "name": "signature",
          "type": "bytes"
        }
      ],
      "name": "issueCertificate",
      "outputs": [
        {
          "internalType": "uint256",
          "name": "",
          "type": "uint256"
        }
      ],
      "stateMutability": "nonpayable",
      "type": "function"
    },
    {
      "inputs": [
        {
          "internalType": "bytes32",
          "name": "message",
          "type": "bytes32"
        },
        {
          "internalType": "uint256",
          "name": "id",
          "type": "uint256"
        },
        {
          "internalType": "address",
          "name": "issuer",
          "type": "address"
        }
      ],
      "name": "isMatchingSignature",
      "outputs": [
        {
          "internalType": "bool",
          "name": "",
          "type": "bool"
        }
      ],
      "stateMutability": "view",
      "type": "function",
      "constant": true
    }
  ],
  "bytecode": "0x608060405234801561001057600080fd5b5061274c806100206000396000f3fe608060405234801561001057600080fd5b506004361061009e5760003560e01c8063663b3e2211610066578063663b3e22146101845780637aefaf39146101b8578063b5bad46d146101e8578063c8d8184b14610204578063fc79b0a9146102345761009e565b806303a692b9146100a35780630f9c774d146100d55780631d8ee48a1461010557806345194c07146101365780634851a01d14610166575b600080fd5b6100bd60048036038101906100b8919061189e565b610264565b6040516100cc939291906119b4565b60405180910390f35b6100ef60048036038101906100ea919061189e565b610336565b6040516100fc91906119f2565b60405180910390f35b61011f600480360381019061011a9190611a39565b61035a565b60405161012d929190611add565b60405180910390f35b610150600480360381019061014b9190611b3c565b6103ab565b60405161015d9190611baa565b60405180910390f35b61016e610733565b60405161017b91906119f2565b60405180910390f35b61019e6004803603810190610199919061189e565b610738565b6040516101af959493929190611d8e565b60405180910390f35b6101d260048036038101906101cd919061189e565b6109e9565b6040516101df91906119f2565b60405180910390f35b61020260048036038101906101fd9190611f2b565b610a0d565b005b61021e60048036038101906102199190612028565b610bca565b60405161022b91906119f2565b60405180910390f35b61024e600480360381019061024991906120db565b611141565b60405161025b91906119f2565b60405180910390f35b600260205280600052604060002060009150905080600001549080600101805461028d90612166565b80601f01602080910402602001604051908101604052809291908181526020018280546102b990612166565b80156103065780601f106102db57610100808354040283529160200191610306565b820191906000526020600020905b8154815290600101906020018083116102e957829003601f168201915b5050505050908060020160009054906101000a900473ffffffffffffffffffffffffffffffffffffffff16905083565b6000818154811061034657600080fd5b906000526020600020016000915090505481565b60046020528060005260406000206000915090508060000160009054906101000a900473ffffffffffffffffffffffffffffffffffffffff16908060000160149054906101000a900460ff16905082565b600080600360008581526020019081526020016000206040518060a001604052908160008201548152602001600182016040518060600160405290816000820160009054906101000a900473ffffffffffffffffffffffffffffffffffffffff1673ffffffffffffffffffffffffffffffffffffffff1673ffffffffffffffffffffffffffffffffffffffff1681526020016000820160149054906101000a900460ff16600281111561046157610460611a66565b5b600281111561047357610472611a66565b5b8152602001600182018054806020026020016040519081016040528092919081815260200182805480156104c657602002820191906000526020600020905b8154815260200190600101908083116104b2575b5050505050815250508152602001600382016040518060600160405290816000820160009054906101000a900473ffffffffffffffffffffffffffffffffffffffff1673ffffffffffffffffffffffffffffffffffffffff1673ffffffffffffffffffffffffffffffffffffffff1681526020016000820160149054906101000a900460ff16600281111561055e5761055d611a66565b5b60028111156105705761056f611a66565b5b8152602001600182018054806020026020016040519081016040528092919081815260200182805480156105c357602002820191906000526020600020905b8154815260200190600101908083116105af575b50505050508152505081526020016005820180546105e090612166565b80601f016020809104026020016040519081016040528092919081815260200182805461060c90612166565b80156106595780601f1061062e57610100808354040283529160200191610659565b820191906000526020600020905b81548152906001019060200180831161063c57829003601f168201915b505050505081526020016006820160009054906101000a900460ff16600481111561068757610686611a66565b5b600481111561069957610698611a66565b5b8152505090508273ffffffffffffffffffffffffffffffffffffffff1681602001516000015173ffffffffffffffffffffffffffffffffffffffff16146106df57600080fd5b60006106ef868360600151611302565b905081602001516000015173ffffffffffffffffffffffffffffffffffffffff168173ffffffffffffffffffffffffffffffffffffffff1614925050509392505050565b600281565b6003602052806000526040600020600091509050806000015490806001016040518060600160405290816000820160009054906101000a900473ffffffffffffffffffffffffffffffffffffffff1673ffffffffffffffffffffffffffffffffffffffff1673ffffffffffffffffffffffffffffffffffffffff1681526020016000820160149054906101000a900460ff1660028111156107dc576107db611a66565b5b60028111156107ee576107ed611a66565b5b81526020016001820180548060200260200160405190810160405280929190818152602001828054801561084157602002820191906000526020600020905b81548152602001906001019080831161082d575b50505050508152505090806003016040518060600160405290816000820160009054906101000a900473ffffffffffffffffffffffffffffffffffffffff1673ffffffffffffffffffffffffffffffffffffffff1673ffffffffffffffffffffffffffffffffffffffff1681526020016000820160149054906101000a900460ff1660028111156108d5576108d4611a66565b5b60028111156108e7576108e6611a66565b5b81526020016001820180548060200260200160405190810160405280929190818152602001828054801561093a57602002820191906000526020600020905b815481526020019060010190808311610926575b5050505050815250509080600501805461095390612166565b80601f016020809104026020016040519081016040528092919081815260200182805461097f90612166565b80156109cc5780601f106109a1576101008083540402835291602001916109cc565b820191906000526020600020905b8154815290600101906020018083116109af57829003601f168201915b5050505050908060060160009054906101000a900460ff16905085565b600181815481106109f957600080fd5b906000526020600020016000915090505481565b6000610a18826113da565b90506000600267ffffffffffffffff811115610a3757610a36611e00565b5b604051908082528060200260200182016040528015610a655781602001602082028036833780820191505090505b509050600060405180606001604052808673ffffffffffffffffffffffffffffffffffffffff168152602001846002811115610aa457610aa3611a66565b5b815260200183815250905080600460008773ffffffffffffffffffffffffffffffffffffffff1673ffffffffffffffffffffffffffffffffffffffff16815260200190815260200160002060008201518160000160006101000a81548173ffffffffffffffffffffffffffffffffffffffff021916908373ffffffffffffffffffffffffffffffffffffffff16021790555060208201518160000160146101000a81548160ff02191690836002811115610b6157610b60611a66565b5b02179055506040820151816001019080519060200190610b829291906116de565b509050507ff5a37da00f0e4029ee2682b1919ee55d7e6f9d7492237aad9bd1aea7d53d4874816000015185604051610bbb929190612198565b60405180910390a15050505050565b600080600460008873ffffffffffffffffffffffffffffffffffffffff1673ffffffffffffffffffffffffffffffffffffffff1681526020019081526020016000206040518060600160405290816000820160009054906101000a900473ffffffffffffffffffffffffffffffffffffffff1673ffffffffffffffffffffffffffffffffffffffff1673ffffffffffffffffffffffffffffffffffffffff1681526020016000820160149054906101000a900460ff166002811115610c9257610c91611a66565b5b6002811115610ca457610ca3611a66565b5b815260200160018201805480602002602001604051908101604052809291908181526020018280548015610cf757602002820191906000526020600020905b815481526020019060010190808311610ce3575b505050505081525050905060006002811115610d1657610d15611a66565b5b81602001516002811115610d2d57610d2c611a66565b5b14610d3757600080fd5b6000600460008873ffffffffffffffffffffffffffffffffffffffff1673ffffffffffffffffffffffffffffffffffffffff1681526020019081526020016000206040518060600160405290816000820160009054906101000a900473ffffffffffffffffffffffffffffffffffffffff1673ffffffffffffffffffffffffffffffffffffffff1673ffffffffffffffffffffffffffffffffffffffff1681526020016000820160149054906101000a900460ff166002811115610dfe57610dfd611a66565b5b6002811115610e1057610e0f611a66565b5b815260200160018201805480602002602001604051908101604052809291908181526020018280548015610e6357602002820191906000526020600020905b815481526020019060010190808311610e4f575b505050505081525050905060016002811115610e8257610e81611a66565b5b82602001516002811115610e9957610e98611a66565b5b14610ea357600080fd5b6000610eae87611500565b905060008080549050905060006040518060a00160405280838152602001868152602001858152602001888152602001846004811115610ef157610ef0611a66565b5b8152509050600082908060018154018082558091505060019003906000526020600020016000909190919091505580600360008481526020019081526020016000206000820151816000015560208201518160010160008201518160000160006101000a81548173ffffffffffffffffffffffffffffffffffffffff021916908373ffffffffffffffffffffffffffffffffffffffff16021790555060208201518160000160146101000a81548160ff02191690836002811115610fb857610fb7611a66565b5b02179055506040820151816001019080519060200190610fd99291906116de565b50505060408201518160030160008201518160000160006101000a81548173ffffffffffffffffffffffffffffffffffffffff021916908373ffffffffffffffffffffffffffffffffffffffff16021790555060208201518160000160146101000a81548160ff0219169083600281111561105757611056611a66565b5b021790555060408201518160010190805190602001906110789291906116de565b505050606082015181600501908051906020019061109792919061172b565b5060808201518160060160006101000a81548160ff021916908360048111156110c3576110c2611a66565b5b02179055509050508973ffffffffffffffffffffffffffffffffffffffff168b73ffffffffffffffffffffffffffffffffffffffff167fc9e3e855764ebb21ed83dcdf8ed5e1398c752d6446308e092c28a84a77a199bd8460405161112891906119f2565b60405180910390a3819550505050505095945050505050565b600080600267ffffffffffffffff81111561115f5761115e611e00565b5b60405190808252806020026020018201604052801561118d5781602001602082028036833780820191505090505b50905060006001805490509050600060405180608001604052808381526020018781526020018673ffffffffffffffffffffffffffffffffffffffff168152602001848152509050806002600084815260200190815260200160002060008201518160000155602082015181600101908051906020019061120f9291906117b1565b5060408201518160020160006101000a81548173ffffffffffffffffffffffffffffffffffffffff021916908373ffffffffffffffffffffffffffffffffffffffff16021790555060608201518160030190805190602001906112739291906116de565b509050506001829080600181540180825580915050600190039060005260206000200160009091909190915055806040015173ffffffffffffffffffffffffffffffffffffffff167fe85391abb5e51659c581dd95107048251657ee66755655cc08c9c0ec3a0a913982600001516040516112ee91906119f2565b60405180910390a281935050505092915050565b600080600080611311856116ac565b92509250925060006040518060400160405280601c81526020017f19457468657265756d205369676e6564204d6573736167653a0a333200000000815250905060008188604051602001611366929190612225565b604051602081830303815290604052805190602001209050600181868686604051600081526020016040526040516113a19493929190612278565b6020604051602081039080840390855afa1580156113c3573d6000803e3d6000fd5b505050602060405103519550505050505092915050565b600080826040516020016113ee91906122f9565b60405160208183030381529060405280519060200120905060006040516020016114179061235c565b6040516020818303038152906040528051906020012090506000604051602001611440906123bd565b60405160208183030381529060405280519060200120905060006040516020016114699061241e565b604051602081830303815290604052805190602001209050828414156114965760009450505050506114fb565b818414156114ab5760019450505050506114fb565b808414156114c05760029450505050506114fb565b6040517f08c379a00000000000000000000000000000000000000000000000000000000081526004016114f29061247f565b60405180910390fd5b919050565b6000808260405160200161151491906122f9565b604051602081830303815290604052805190602001209050600060405160200161153d906124eb565b60405160208183030381529060405280519060200120905060006040516020016115669061254c565b604051602081830303815290604052805190602001209050600060405160200161158f906125ad565b60405160208183030381529060405280519060200120905060006040516020016115b89061260e565b60405160208183030381529060405280519060200120905060006040516020016115e19061266f565b6040516020818303038152906040528051906020012090508486141561161057600096505050505050506116a7565b8386141561162757600196505050505050506116a7565b8286141561163e57600296505050505050506116a7565b8186141561165557600396505050505050506116a7565b8086141561166c57600496505050505050506116a7565b6040517f08c379a000000000000000000000000000000000000000000000000000000000815260040161169e906126f6565b60405180910390fd5b919050565b600080600060418451146116bf57600080fd5b6020840151915060408401519050606084015160001a92509193909250565b82805482825590600052602060002090810192821561171a579160200282015b828111156117195782518255916020019190600101906116fe565b5b5090506117279190611837565b5090565b82805461173790612166565b90600052602060002090601f01602090048101928261175957600085556117a0565b82601f1061177257805160ff19168380011785556117a0565b828001600101855582156117a0579182015b8281111561179f578251825591602001919060010190611784565b5b5090506117ad9190611837565b5090565b8280546117bd90612166565b90600052602060002090601f0160209004810192826117df5760008555611826565b82601f106117f857805160ff1916838001178555611826565b82800160010185558215611826579182015b8281111561182557825182559160200191906001019061180a565b5b5090506118339190611837565b5090565b5b80821115611850576000816000905550600101611838565b5090565b6000604051905090565b600080fd5b600080fd5b6000819050919050565b61187b81611868565b811461188657600080fd5b50565b60008135905061189881611872565b92915050565b6000602082840312156118b4576118b361185e565b5b60006118c284828501611889565b91505092915050565b6118d481611868565b82525050565b600081519050919050565b600082825260208201905092915050565b60005b838110156119145780820151818401526020810190506118f9565b83811115611923576000848401525b50505050565b6000601f19601f8301169050919050565b6000611945826118da565b61194f81856118e5565b935061195f8185602086016118f6565b61196881611929565b840191505092915050565b600073ffffffffffffffffffffffffffffffffffffffff82169050919050565b600061199e82611973565b9050919050565b6119ae81611993565b82525050565b60006060820190506119c960008301866118cb565b81810360208301526119db818561193a565b90506119ea60408301846119a5565b949350505050565b6000602082019050611a0760008301846118cb565b92915050565b611a1681611993565b8114611a2157600080fd5b50565b600081359050611a3381611a0d565b92915050565b600060208284031215611a4f57611a4e61185e565b5b6000611a5d84828501611a24565b91505092915050565b7f4e487b7100000000000000000000000000000000000000000000000000000000600052602160045260246000fd5b60038110611aa657611aa5611a66565b5b50565b6000819050611ab782611a95565b919050565b6000611ac782611aa9565b9050919050565b611ad781611abc565b82525050565b6000604082019050611af260008301856119a5565b611aff6020830184611ace565b9392505050565b6000819050919050565b611b1981611b06565b8114611b2457600080fd5b50565b600081359050611b3681611b10565b92915050565b600080600060608486031215611b5557611b5461185e565b5b6000611b6386828701611b27565b9350506020611b7486828701611889565b9250506040611b8586828701611a24565b9150509250925092565b60008115159050919050565b611ba481611b8f565b82525050565b6000602082019050611bbf6000830184611b9b565b92915050565b611bce81611993565b82525050565b611bdd81611abc565b82525050565b600081519050919050565b600082825260208201905092915050565b6000819050602082019050919050565b611c1881611868565b82525050565b6000611c2a8383611c0f565b60208301905092915050565b6000602082019050919050565b6000611c4e82611be3565b611c588185611bee565b9350611c6383611bff565b8060005b83811015611c94578151611c7b8882611c1e565b9750611c8683611c36565b925050600181019050611c67565b5085935050505092915050565b6000606083016000830151611cb96000860182611bc5565b506020830151611ccc6020860182611bd4565b5060408301518482036040860152611ce48282611c43565b9150508091505092915050565b600081519050919050565b600082825260208201905092915050565b6000611d1882611cf1565b611d228185611cfc565b9350611d328185602086016118f6565b611d3b81611929565b840191505092915050565b60058110611d5757611d56611a66565b5b50565b6000819050611d6882611d46565b919050565b6000611d7882611d5a565b9050919050565b611d8881611d6d565b82525050565b600060a082019050611da360008301886118cb565b8181036020830152611db58187611ca1565b90508181036040830152611dc98186611ca1565b90508181036060830152611ddd8185611d0d565b9050611dec6080830184611d7f565b9695505050505050565b600080fd5b600080fd5b7f4e487b7100000000000000000000000000000000000000000000000000000000600052604160045260246000fd5b611e3882611929565b810181811067ffffffffffffffff82111715611e5757611e56611e00565b5b80604052505050565b6000611e6a611854565b9050611e768282611e2f565b919050565b600067ffffffffffffffff821115611e9657611e95611e00565b5b611e9f82611929565b9050602081019050919050565b82818337600083830152505050565b6000611ece611ec984611e7b565b611e60565b905082815260208101848484011115611eea57611ee9611dfb565b5b611ef5848285611eac565b509392505050565b600082601f830112611f1257611f11611df6565b5b8135611f22848260208601611ebb565b91505092915050565b60008060408385031215611f4257611f4161185e565b5b6000611f5085828601611a24565b925050602083013567ffffffffffffffff811115611f7157611f70611863565b5b611f7d85828601611efd565b9150509250929050565b600067ffffffffffffffff821115611fa257611fa1611e00565b5b611fab82611929565b9050602081019050919050565b6000611fcb611fc684611f87565b611e60565b905082815260208101848484011115611fe757611fe6611dfb565b5b611ff2848285611eac565b509392505050565b600082601f83011261200f5761200e611df6565b5b813561201f848260208601611fb8565b91505092915050565b600080600080600060a086880312156120445761204361185e565b5b600061205288828901611a24565b955050602061206388828901611a24565b945050604086013567ffffffffffffffff81111561208457612083611863565b5b61209088828901611efd565b93505060606120a188828901611889565b925050608086013567ffffffffffffffff8111156120c2576120c1611863565b5b6120ce88828901611ffa565b9150509295509295909350565b600080604083850312156120f2576120f161185e565b5b600083013567ffffffffffffffff8111156121105761210f611863565b5b61211c85828601611efd565b925050602061212d85828601611a24565b9150509250929050565b7f4e487b7100000000000000000000000000000000000000000000000000000000600052602260045260246000fd5b6000600282049050600182168061217e57607f821691505b6020821081141561219257612191612137565b5b50919050565b60006040820190506121ad60008301856119a5565b81810360208301526121bf818461193a565b90509392505050565b600081905092915050565b60006121de82611cf1565b6121e881856121c8565b93506121f88185602086016118f6565b80840191505092915050565b6000819050919050565b61221f61221a82611b06565b612204565b82525050565b600061223182856121d3565b915061223d828461220e565b6020820191508190509392505050565b61225681611b06565b82525050565b600060ff82169050919050565b6122728161225c565b82525050565b600060808201905061228d600083018761224d565b61229a6020830186612269565b6122a7604083018561224d565b6122b4606083018461224d565b95945050505050565b600081905092915050565b60006122d3826118da565b6122dd81856122bd565b93506122ed8185602086016118f6565b80840191505092915050565b600061230582846122c8565b915081905092915050565b7f4953535545520000000000000000000000000000000000000000000000000000600082015250565b60006123466006836122bd565b915061235182612310565b600682019050919050565b600061236782612339565b9150819050919050565b7f50524f5645520000000000000000000000000000000000000000000000000000600082015250565b60006123a76006836122bd565b91506123b282612371565b600682019050919050565b60006123c88261239a565b9150819050919050565b7f5645524946494552000000000000000000000000000000000000000000000000600082015250565b60006124086008836122bd565b9150612413826123d2565b600882019050919050565b6000612429826123fb565b9150819050919050565b7f526563696576656420696e76616c696420656e74697479206d6f646500000000600082015250565b6000612469601c836118e5565b915061247482612433565b602082019050919050565b600060208201905081810360008301526124988161245c565b9050919050565b7f4d414e5546414354555245440000000000000000000000000000000000000000600082015250565b60006124d5600c836122bd565b91506124e08261249f565b600c82019050919050565b60006124f6826124c8565b9150819050919050565b7f44454c49564552494e475f494e5445524e4154494f4e414c0000000000000000600082015250565b60006125366018836122bd565b915061254182612500565b601882019050919050565b600061255782612529565b9150819050919050565b7f53544f5245440000000000000000000000000000000000000000000000000000600082015250565b60006125976006836122bd565b91506125a282612561565b600682019050919050565b60006125b88261258a565b9150819050919050565b7f44454c49564552494e475f4c4f43414c00000000000000000000000000000000600082015250565b60006125f86010836122bd565b9150612603826125c2565b601082019050919050565b6000612619826125eb565b9150819050919050565b7f44454c4956455245440000000000000000000000000000000000000000000000600082015250565b60006126596009836122bd565b915061266482612623565b600982019050919050565b600061267a8261264c565b9150819050919050565b7f526563696576656420696e76616c69642063657274696669636174652073746160008201527f7475730000000000000000000000000000000000000000000000000000000000602082015250565b60006126e06023836118e5565b91506126eb82612684565b604082019050919050565b6000602082019050818103600083015261270f816126d3565b905091905056fea2646970667358221220a815c77aa58f8c0299fcf83100d0aa253c0b7425a2d90bb9b877be3add3572f464736f6c634300080b0033",
  "immutableReferences": {},
  "source": "// SPDX-License-Identifier: GPL-3.0\npragma solidity >=0.7.0 <0.9.0;\n\nlibrary CryptoSuite{\n    function splitSignature(bytes memory sig) internal pure returns (uint8 v, bytes32 r, bytes32 s){\n        require(sig.length == 65);\n\n        assembly {\n            // first 32 bytes, after the length prefix.\n            r := mload(add(sig, 32))\n            // second 32 bytes.\n            s := mload(add(sig, 64))\n            // final byte (first byte of the next 32 bytes).\n            v := byte(0, mload(add(sig, 96)))\n        }\n\n        return (v, r, s);\n    }\n\n    function recoverSigner(bytes32 message, bytes memory sig) internal pure returns (address){\n        (uint8 v, bytes32 r, bytes32 s) = splitSignature(sig);\n        bytes memory prefix = \"\\x19Ethereum Signed Message:\\n32\";\n        bytes32 prefixedHash = keccak256(abi.encodePacked(prefix, message));\n\n        return ecrecover(prefixedHash, v, r, s);\n    }\n\n}\n\ncontract Chain{\n\n    enum Mode{ISSUER, PROVER, VERIFIER}\n\n    struct Entity{\n        address id;\n        Mode mode;\n        uint[] certificateIds;\n    }\n\n    enum CertificateStatus {MANUFACTURED, DELIVERING_INTERNATIONAL, STORED, DELIVERING_LOCAL, DELIVERED}\n\n    struct Certificate{\n        uint id;\n        Entity issuer;\n        Entity prover;\n        bytes signature;\n        CertificateStatus status;\n    }\n\n    struct VaccineBatch{\n        uint id;\n        string brand;\n        address manufacturer;\n        uint[] certificateIds;\n    }\n\n    uint public constant MAX_CERTIFICATIONS = 2;\n\n    uint[] public certificateIds;\n    uint[] public vaccineBatchIds;\n\n    mapping(uint => VaccineBatch) public vaccineBatches;\n    mapping(uint =>Certificate) public certificates;\n    mapping(address => Entity) public entities;\n\n    event AddEntity(address entityId, string entityMode);\n    event AddVaccineBatch(uint vaccineBatchId, address indexed manufacturer);\n    event IssueCertificate(address indexed issuer, address indexed prover, uint certificateId);\n\n    function unmarshalMode(string memory _mode) private pure returns(Mode mode){\n        bytes32 encodedMode = keccak256(abi.encodePacked(_mode));\n        bytes32 encodedMode0 = keccak256(abi.encodePacked(\"ISSUER\"));\n        bytes32 encodedMode1 = keccak256(abi.encodePacked(\"PROVER\"));\n        bytes32 encodedMode2 = keccak256(abi.encodePacked(\"VERIFIER\"));\n\n        if(encodedMode == encodedMode0){\n            return Mode.ISSUER;\n        }\n        else if(encodedMode == encodedMode1){\n            return Mode.PROVER;\n        }\n        else if(encodedMode == encodedMode2){\n            return Mode.VERIFIER;\n        }\n\n        revert(\"Recieved invalid entity mode\");\n    }\n\n    function addEntity(address _id, string memory _mode) public{\n        Mode mode = unmarshalMode(_mode);\n        uint[] memory _certificateIds = new uint[](MAX_CERTIFICATIONS);\n        Entity memory entity = Entity(_id, mode, _certificateIds);\n        entities[_id] = entity;\n\n        emit AddEntity(entity.id, _mode);\n    }\n\n    function addVaccineBatch(string memory brand, address manufacturer) public returns(uint){\n        uint[] memory _certificateIds = new uint[](MAX_CERTIFICATIONS);\n        uint id = vaccineBatchIds.length;\n        VaccineBatch memory batch = VaccineBatch(id, brand, manufacturer, _certificateIds);\n        \n        vaccineBatches[id] = batch;\n        vaccineBatchIds.push(id);\n\n        emit AddVaccineBatch(batch.id, batch.manufacturer);\n        return id;\n    }\n\n    function unmarshalStatus(string memory _status) private pure returns(CertificateStatus status){\n        bytes32 encodedStatus = keccak256(abi.encodePacked(_status));\n        bytes32 encodedStatus0 = keccak256(abi.encodePacked(\"MANUFACTURED\"));\n        bytes32 encodedStatus1 = keccak256(abi.encodePacked(\"DELIVERING_INTERNATIONAL\"));\n        bytes32 encodedStatus2 = keccak256(abi.encodePacked(\"STORED\"));\n        bytes32 encodedStatus3 = keccak256(abi.encodePacked(\"DELIVERING_LOCAL\"));\n        bytes32 encodedStatus4 = keccak256(abi.encodePacked(\"DELIVERED\"));\n\n        if(encodedStatus == encodedStatus0){\n            return CertificateStatus.MANUFACTURED;\n        }\n        else if(encodedStatus == encodedStatus1){\n            return CertificateStatus.DELIVERING_INTERNATIONAL;\n        }\n        else if(encodedStatus == encodedStatus2){\n            return CertificateStatus.STORED;\n        }\n        else if(encodedStatus == encodedStatus3){\n            return CertificateStatus.DELIVERING_LOCAL;\n        }\n        else if(encodedStatus == encodedStatus4){\n            return CertificateStatus.DELIVERED;\n        }\n\n        revert(\"Recieved invalid certificate status\");\n    }\n\n    function issueCertificate(\n        address _issuer, address _prover, string memory _status, \n        uint vaccineBatchId, bytes memory signature) public returns(uint){\n            Entity memory issuer = entities[_issuer];\n            require(issuer.mode == Mode.ISSUER);\n\n            Entity memory prover = entities[_prover];\n            require(issuer.mode == Mode.PROVER);\n\n            CertificateStatus status = unmarshalStatus(_status);\n            uint id = certificateIds.length;\n\n            Certificate memory certificate = Certificate(id, issuer, prover, signature, status);\n\n            certificateIds.push(id);\n            certificates[id] = certificate;\n\n            emit IssueCertificate(_issuer, _prover, id);\n            return id;\n    }\n\n    function isMatchingSignature(bytes32 message, uint id, address issuer) public view returns(bool){\n        Certificate memory cert = certificates[id];\n        require(cert.issuer.id == issuer);\n\n        address recoveredSigner = CryptoSuite.recoverSigner(message, cert.signature);\n\n        return recoveredSigner == cert.issuer.id;\n    }\n}",
  "sourcePath": "/Users/dkgoutham/projects/ethereum/Supply Chain/contracts/Chain.sol",
  "compiler": {
    "name": "solc",
    "version": "0.8.11+commit.d7f03943.Emscripten.clang"
  },
  "schemaVersion": "3.4.4",
  "updatedAt": "2022-02-10T06:01:48.966Z",
  "networkType": "ethereum",
  "devdoc": {
    "kind": "dev",
    "methods": {},
    "version": 1
  },
  "userdoc": {
    "kind": "user",
    "methods": {},
    "version": 1
  }
}